:020000040800F2
:1000000090040020AD020008DF210008AD200008A8
:10001000DD21000819030008392A0008000000004B
:10002000000000000000000000000000C9280008D7
:100030009103000800000000E1210008CB2800081F
:10004000C7020008C7020008C7020008C70200086C
:10005000C7020008C7020008C7020008C70200085C
:10006000C7020008C7020008C7020008C70200084C
:10007000C7020008C7020008C7020008C70200083C
:10008000C7020008C7020008C7020008C70200082C
:10009000C7020008C7020008C7020008C70200081C
:1000A000C7020008C7020008C7020008C70200080C
:1000B000C7020008C7020008C7020008C7020008FC
:1000C000C7020008C7020008C7020008C7020008EC
:1000D000C7020008C7020008C7020008C7020008DC
:1000E000C7020008C702000800000000C70200089D
:1000F000C7020008C7020008C7020008C7020008BC
:10010000C7020008C7020008C7020008C7020008AB
:10011000C7020008C7020008C7020008C70200089B
:10012000C7020008C7020008C7020008C70200088B
:10013000C7020008C7020008C7020008C70200087B
:1001400000000000000000000000000000000000AF
:10015000C7020008C7020008C7020008C70200085B
:10016000C7020008C7020008C7020008C70200084B
:10017000C7020008C7020008C7020008C70200083B
:10018000C7020008C7020008C7020008C70200082B
:10019000C7020008C7020008C7020008C70200081B
:1001A000C7020008C7020008C7020008C70200080B
:1001B000C7020008C7020008C7020008C7020008FB
:1001C000C7020008C7020008C7020008C7020008EB
:1001D000C7020008C7020008C7020008C7020008DB
:1001E000C7020008C7020008C7020008C7020008CB
:1001F000C7020008C7020008C7020008C7020008BB
:10020000C7020008C7020008C7020008C7020008AA
:10021000C7020008C7020008C7020008C70200089A
:10022000C7020008C7020008C7020008000000005B
:10023000C7020008C702000800000000C70200084B
:10024000C7020008C7020008C7020008C70200086A
:10025000C7020008C7020008C7020008C70200085A
:10026000C7020008C7020008C7020008C70200084A
:10027000C7020008C7020008C7020008000000000B
:10028000C7020008C7020008C702000800000000FB
:1002900000000000C7020008DFF80CD000F02AF8C8
:1002A00000480047B12A0008900400200648804713
:1002B00006480047FEE7FEE7FEE7FEE7FEE7FEE74B
:1002C000FEE7FEE7FEE7FEE79D2900089902000829
:1002D000D2B201E000F8012B491EFBD27047002288
:1002E000F6E710B513460A4604461946FFF7F0FF35
:1002F000204610BD064C074D06E0E06840F00103C3
:1003000094E8070098471034AC42F6D3FFF7C8FFD3
:10031000582E0008782E0008FEE7000070B5BFF3E5
:100320004F8FBFF36F8F184800210368174A23F4DB
:10033000003303601160BFF34F8FBFF36F8F124A1A
:1003400070321160BFF34F8F016821F4803101607A
:10035000BFF34F8F101F43F6FF7300680B4D24351A
:10036000C0F34E31C0F3C90203EA4114104600BF86
:1003700044EA80762E60401EFAD2491EF4D2BFF3C2
:100380004F8FBFF36F8F70BD14ED00E050EF00E0B2
:100390007047704770B5044600F0F6F90546601CDA
:1003A00002D004480078044400F0EEF9401BA0425B
:1003B000FAD370BD080000202DE9F04F4F4D002208
:1003C0004FF0010A4FF00F0B92E000BF0AFA02F95A
:1003D00019EA01037ED022F0030606F1B046940725
:1003E000D6F808C4270FDFF818810BFA07FE40453E
:1003F0000EEA0C0402D14FF0000C40E0DFF804C11B
:10040000604502D14FF0010C39E0DFF8FCC06045D7
:1004100002D14FF0020C32E0DFF8F0C0604502D1AB
:100420004FF0030C2BE0DFF8E8C0604502D14FF03D
:10043000040C24E0DFF8DCC0604502D14FF0050C6D
:100440001DE0DFF8D4C0604502D14FF0060C16E085
:10045000DFF8C8C0604502D14FF0070C0FE0DFF8AD
:10046000C0C0604502D14FF0080C08E0DFF8B4C00E
:10047000604502D14FF0090C01E04FF00A0C0CFA74
:1004800007FCA44513D12C689C432C606F684FF087
:10049000B0449F436F6027689F43276067689F430E
:1004A0006760D6F8084424EA0E04C6F808440768D2
:1004B0000323D4084FEA42084FEA427C03FA08F3C8
:1004C0004FEADC6C1F4307600BFA0CF600EB840468
:1004D000276A00E00BE0B7432762C4689C43C4600E
:1004E000446824EA0904446084689C438460521C84
:1004F00031FA02F37FF46AAFBDE8F08F8000005854
:10050000000002580004025800080258000C02586B
:10051000001002580014025800180258001C02581B
:1005200000200258002402582DE9FC4F01257E4C82
:1005300000234FF0030A4FF0B04E4FF00F0BEBE0EB
:1005400005FA03F637403A0077D04F68012F05D0FF
:10055000022F03D0112F01D0122F1AD187684FEA32
:100560004308D1F80CC00AFA08F927EA09070CFA7F
:1005700008FC4CEA070CC0F808C0476891F804C0B2
:10058000B743CCF3001C0CFA03FC4CEA070CC0F890
:1005900004C0C6684FEA430CD1F80880E1460AFA65
:1005A0000CF7BE43019708FA09F848EA0608C0F8B4
:1005B0000C804E68022E01D0122E12D1DE084FEAB6
:1005C000437C00EB860600960F69366A4FEADC6CC6
:1005D0000BFA0CF807FA0CF726EA08063743009ED8
:1005E00037620E790768DDF804C006F0030606FAE4
:1005F00009F627EA0C073E4306604E68F6001CD554
:100600004A4E376847F00207376036689F0706F0A2
:100610000206009623F0030606F1B046B1463F0FEE
:10062000D6F80864DFF808810BFA07FC404526EA93
:100630000C0603D14FF0000C41E06CE0DFF8F4C091
:10064000604502D14FF0010C39E0DFF8ECC06045A5
:1006500002D14FF0020C32E0DFF8E0C0604502D179
:100660004FF0030C2BE0DFF8D8C0604502D14FF00B
:10067000040C24E0DFF8CCC0604502D14FF0050C3B
:100680001DE0DFF8C4C0604502D14FF0060C16E053
:10069000DFF8B8C0604502D14FF0070C0FE0DFF87B
:1006A000B0C0604502D14FF0080C08E0DFF8A4C0EC
:1006B000604502D14FF0090C01E04FF00A0C0CFA32
:1006C00007FC4CEA060CC9F808C426684F6826EAFD
:1006D0000206FF0300D51643266066684F6826EAC7
:1006E0000206BF0300D516436660D1F804C0764603
:1006F000DEF800705FEACC2C27EA020700D517432A
:100700003760D1F804C077685FEA8C2C27EA0207CB
:1007100000D5174377605B1C0A681746DA407FF400
:100720000FAFBDE8FC8F000080000058F444025871
:10073000000002580004025800080258000C025839
:10074000001002580014025800180258001C0258E9
:1007500000200258002402580069084000D00120FF
:100760007047426931EA020200D109048161704791
:100770000AB1816170470904FBE700000148006885
:10078000000C70470010005C014880687047000052
:100790000800002002488168027811448160704797
:1007A00008000020032010B500F078F801F0D8F818
:1007B0000F4A104914681368C4F3032203F00F03AF
:1007C0008A5CC95C02F01F0201F01F01D0400A4A96
:1007D00020FA01F1116009490860002000F010F8CA
:1007E00008B1012010BD00F02BF8002010BD000062
:1007F00018440258482E0008180000201400002059
:1008000070B50D4D04462878A0B14FF47A71B1FB54
:10081000F0F00A490968B1FBF0F001F034FC48B986
:10082000102C07D200222146501E00F017F800209D
:100830006C6070BD012070BD080000201400002015
:10084000054808B5016841F002010160006800F048
:100850000200009008BD0000F44402580E4BF0B4B2
:100860001B680D46C3F30223C3F10706042E00D90B
:100870000426191D072901D2002300E0DB1E0124F4
:1008800004FA06F19C40491E2940641E9940144018
:100890002143F0BC02F0DAB80CED00E0064900F0AC
:1008A000070210B54FF6FF040868044B204040EAE9
:1008B00002201843086010BD0CED00E00000FA05AE
:1008C000134970B50A68D243520705D5096801F08B
:1008D0000701814213D118E00A6822F0070202439F
:1008E0000A60FFF751FF0A4D4FF47A760446083D3F
:1008F00007E000BFFFF748FF001BB04201D901200D
:1009000070BD2868C0438004F4D4002070BD00008E
:100910000C4802580248016841F480710160704738
:10092000004802582DE9F84F1E4615468A460446EF
:10093000FFF72AFF814694F8400001280ED00127D6
:100940004FF0000884F8407094F84100012807D067
:100950005FF0020084F84080BDE8F88F0220FBE7DA
:100960004221C4F8448084F84110002220214B46E3
:100970002046009601F0D3FD0028EBD121682868BD
:1009800088622168686848622168A868C86220682F
:100990002969026822F4400242F480021143016096
:1009A000E9684FF000622046CAF82810514601F06D
:1009B0004FFC01224B4608212046009601F0AFFD76
:1009C0000028C7D122680821D16084F84170C1E7AE
:1009D0002DE9F84F17468B460446FFF7D5FE8246B1
:1009E00094F8400001280ED001264FF0000884F84A
:1009F000406094F84100012807D0022584F8408027
:100A00002846BDE8F88F0220FBE74FF00209C4F842
:100A1000448084F8419000222021534620460097CC
:100A200001F07DFD0500E9D100225946204601F084
:100A30000FFCDBF8240058B901225346022120465E
:100A4000009701F06CFD0500D8D12168C1F80C9029
:100A500084F84160D2E710B504000CD0206801682A
:100A600021F001010160204600F0A4F8002060643C
:100A700084F8410010BD012010BD0000F8B5044607
:100A8000FFF782FE05461CB194F8410010B107E063
:100A90000120F8BD204600F0B1F841F28830A06492
:100AA00020686FF0FF02A168036802EB012223F4C3
:100AB000706111430160A06C002220212B46009040
:100AC000204601F02CFD0028E3D12268D4E9073547
:100AD0002679E168176845EA0665DFF844C01943DE
:100AE000104B29430025012607EA0C073943116002
:100AF0002268D4E90517B4F810C0D2F804E03943ED
:100B00000EEA030E4EEA0C431943516021680A684D
:100B100042F001020A60656484F84160F8BD00009B
:100B20002FFFFF00FEF8E0FF2DE9F8431646884648
:100B30000446FFF729FE034694F8400001280ED032
:100B4000012084F84000002794F84100012808D0D3
:100B50005FF0020584F840702846BDE8F883022063
:100B6000FBE7A06C8221676484F8411000222021F9
:100B70000090204601F0D3FC0500EBD1206872689C
:100B8000016821F0080111430160706808280AD14A
:100B900022681021306810632068C16020680168F5
:100BA00041F4801101604FF040624146204601F05F
:100BB0004FFBCFE710B500680B49884213D10B48B3
:100BC000016821F48041016009480421FFF7F4FB2A
:100BD00008484421FFF7F0FBBDE8104006484FF4F9
:100BE0006051FFF7E9BB10BD00500052D4440258D9
:100BF0000010025800040258000C02582DE9F04180
:100C000086B0044614216846FFF769FB2B4920682B
:100C100088424FD12A48016841F480410160006850
:100C200000F48040059026480C30016841F0100126
:100C30000160016801F010010591016841F00201B5
:100C40000160016801F002010591016841F00801AD
:100C500001600068092701AA4FF0040800F00800AD
:100C6000CDF80080022469460025CDE904700326F2
:100C7000144882E87000FFF757FCCDE9008402AA0F
:100C8000DFF844806946404682E8E000FFF74CFC0C
:100C90004FF4605069468DE8F1000C48FFF744FCC2
:100CA0000A214020CDE903618DE8310069464046C4
:100CB000FFF73AFC06B0BDE8F0810000005000529A
:100CC000D44402580010025800040258000C025884
:100CD0002DE9F84F15460E460446FFF755FD8246AE
:100CE0002068816994F8403000F12009012B0DD073
:100CF00001274FF0000884F8407094F84120012A41
:100D000006D0022084F84080BDE8F88F0220FBE77F
:100D1000C4F84480A6B3222284F841200269521C00
:100D2000A2630269521C62632663426922F0406238
:100D300042F080624261206881610EE00621204617
:100D400001F0EDFBC8B999F80000216B0870206B29
:100D5000401C2063A06B401EA063A06B53464FF065
:100D6000010200950028E9D14FF00201204601F070
:100D7000D6FB10B922680221D16084F84170C1E726
:100D8000FFE7616C012041F008016164BAE70000EF
:100D90002DE9F84F15460E460446FFF7F5FC94F88A
:100DA000401082462068012900F120090ED0012759
:100DB0004FF0000884F8407094F84110012907D0E2
:100DC0005FF0020084F84080BDE8F88F0220FBE766
:100DD000C4F8448086B3122184F841100169491C8B
:100DE000E1620169491CA1626662416921F04061CA
:100DF00041610EE00421204601F091FBC8B9606A10
:100E0000017889F80010606A401C6062E06A401E48
:100E1000E062E06A53464FF0010200950028E9D1F4
:100E20004FF00201204601F07AFB10B9226802213E
:100E3000D16084F84170C5E7FFE7616C012041F0A3
:100E400008016164BEE700002DE9FC5F044650F82C
:100E5000241B002500902E460801FE4FDFF8F88382
:100E60001DD5606E50B1B0F5801F0CD0B0F5001FDD
:100E70000ED0B0F5401F1DD001250FE0386840F4BA
:100E80000030386016E00221201D01F0B1FB03E0C4
:100E90000098022101F03CFC05000BD02E46208872
:100EA000C00523D5606D05281ED2DFE800F00C11C7
:100EB000161B1B00626ED8F8001021F4401111437C
:100EC000C8F80010EBE7386840F40030386009E0FB
:100ED0000021201D01F08CFB03E00098002101F0AF
:100EE00017FC05466DB100E001252E4620888005DF
:100EF00028D5A06D80281ED00CDC90B140280ED1E2
:100F000014E0626DD8F8001021F007011143C8F811
:100F10000010EBE7C02813D0B0F5807F10D001257A
:100F20000FE0386840F40030386009E00021201DEF
:100F300001F05EFB03E00098002101F0E9FB0546AB
:100F400095B12E462088DFF81093400509F1080975
:100F50002CD5D4F8A400B0F5800F20D00DDCA0B1C2
:100F6000B0F5001F0FD115E0A26DD8F8001021F4E4
:100F7000E0711143C8F80010E4E7B0F5C00F13D0DA
:100F8000B0F5000F10D001250FE0386840F40030B4
:100F9000386009E00021201D01F02AFB03E00098E1
:100FA000002101F0B5FB054675B12E4620880005ED
:100FB0002DD5D4F8A800B0F1007F21D00EDCA8B167
:100FC000B0F1807F10D116E0D4F8A420D9F8001039
:100FD00021F460011143C9F80010E7E7B0F1407F48
:100FE00013D0B0F1806F10D001250FE0386840F4C5
:100FF0000030386009E00021201D01F0F9FA03E01B
:101000000098002101F084FB05466DB12E46206852
:1010100080011FD5A06CD8B110280FD0202812D085
:10102000302815D0012514E0D4F8A820D9F80010F4
:1010300021F0E0611143C9F80010E8E7386840F496
:101040000030386004E00221201D01F0D1FA05468D
:101050006DB12E462088C0042BD5E06DB0F5005F41
:1010600020D00DDCA0B1B0F5805F0FD115E07A483B
:10107000A26C001F016821F0300111430160E9E713
:10108000B0F5405F13D0B0F5804F10D001250FE0D0
:10109000386840F40030386009E00021201D01F07C
:1010A000A7FA03E00098002101F032FB054685B164
:1010B0002E462088800429D5206EB0F5403F23D0ED
:1010C00010DC08B3B0F5803F14D0B0F5003F0FD16D
:1010D00015E0E26DD8F8001021F4E0411143C8F8A2
:1010E0000010E6E7B0F5802F0ED0B0F5A02F0BD0A2
:1010F00001250AE00121201D01F07AFA03E00098A1
:10110000012101F005FB05468DB12E4620884004E3
:101110002AD5D4F8AC00B0F1405F23D010DC08B37E
:10112000B0F1805F14D0B0F1005F0FD115E0226EF6
:10113000D8F8001021F4E0211143C8F80010E5E7C9
:10114000B0F1804F0ED0B0F1A04F0BD001250AE0D6
:101150000121201D01F04CFA03E00098012101F06B
:10116000D7FA05466DB12E46208800041FD5E06EE3
:10117000D8B1B0F1805F0ED0B0F1005F10D0012582
:1011800014E0D4F8AC20D9F8001021F0E04111436C
:10119000C9F80010E8E7386840F40030386004E02F
:1011A0000121201D01F024FA05466DB12E4620686C
:1011B000C0011ED5606CD0B101280ED0022811D01C
:1011C000032814D0012513E0E26ED8F8001021F0B6
:1011D00040511143C8F80010E9E7386840F4003086
:1011E000386004E00221201D01F002FA054685B1B5
:1011F0002E462068DFF85CB04002ABF11C0B57D5DF
:101200001648016841F480710160FFF7BDFA82461B
:101210000EE01148626C001F016821F003011143C8
:101220000160E6E7FFF7B0FAA0EB0A0064283DD8BA
:101230000A480068C005F5D57DBBDFF81CA0B4F8EE
:10124000B0100AF1200ADAF8000001F4407100F44D
:10125000407005E02C44025850440258004802589F
:10126000884211D0DAF80010DAF8002021F4407139
:1012700042F48032CAF80020DAF8002022F48032EA
:10128000CAF80020CAF80010D4F8B000B0F5807F8A
:1012900021D1FFF779FA019019E008E0FFF774FA1D
:1012A0000199411A41F28830814210D903252E4616
:1012B0002078DFF830A4C0073DD0A06F182838D0C0
:1012C00026DC80B3082829D0102825D12CE0DAF8B4
:1012D00000008007E2D5D4F8B010C1F30120032844
:1012E00058460DD0016821F47C510160B4F8B0205B
:1012F000DAF80010C2F30B021143CAF80010D7E766
:10130000F94A036802EA111223F47C511143ECE715
:1013100020280ED028280CD001250BE00121201D0B
:1013200001F066F904E004E00098012101F0F0F911
:1013300005465DB12E46207880071ED5606F0628D1
:1013400019D2DFE800F0160C11161616A26FDAF8A3
:10135000001021F038011143CAF80010EBE7012119
:10136000201D01F045F903E00098012101F0D0F9BA
:10137000054675B100E001252E46207840071FD5AF
:10138000D4F89000062819D2DFE800F0160C1116E8
:101390001616626FDAF8001021F007011143CAF83F
:1013A0000010EAE70121201D01F022F903E0009876
:1013B000012101F0ADF905469DB100E001252E4661
:1013C000207880062BD5D4F88C00B0F1405F24D073
:1013D00011DC10B3B0F1805F15D0B0F1005F10D117
:1013E00016E0D4F89020D9F8001021F0070111433D
:1013F000C9F80010E4E7B0F1804F0ED0B0F1A04F73
:101400000BD001250AE00021201D01F0F1F803E0D6
:101410000098022101F07CF905468DB12E46207816
:1014200040062BD5D4F89800B0F5406F24D011DCDD
:1014300010B3B0F5806F15D0B0F5006F10D116E085
:10144000D4F88C20DAF8001021F0E0411143CAF8FA
:101450000010E4E7B0F5805F0ED0B0F5A05F0BD0D0
:1014600001250AE00021201D01F0C2F803E00098E8
:10147000022101F04DF905468DB12E462078000677
:101480002BD5D4F89C00B0F5C04F24D011DC10B39C
:10149000B0F5005F15D0B0F5804F10D116E0D4F84C
:1014A0009820D9F8001021F4E0511143C9F8001038
:1014B000E4E7B0F5004F0ED0B0F5204F0BD001257A
:1014C0000AE00021201D01F093F803E000980221BA
:1014D00001F01EF905464DB12E46207800071ED5B5
:1014E000D4F88000B0F5805F0AD00FE0D4F89C20DB
:1014F000D9F8001021F460411143C9F80010ECE75D
:101500000098022101F004F900B10126D4F88020EE
:10151000DAF8001021F440511143CAF80010207885
:10152000C00613D5D4F89400B0F5807F05D100989B
:10153000022101F0EDF800B10126D4F89420D9F889
:10154000001021F440711143C9F800102068000315
:1015500016D5D4F8A00038B1B0F5803F09D0B0F569
:10156000003F0BD001250AE00021201D01F040F8CA
:1015700003E00098022101F0CBF8054685B12E4624
:101580002068400322D5D4F88400B0F5801F11D024
:10159000B0F5001F13D0B0F5401F15D0012514E0A1
:1015A000D4F8A020D9F8001021F440311143C9F833
:1015B0000010E5E7386840F40030386004E0009837
:1015C000012101F0A5F8054655B12E462068C0035B
:1015D0001CD5E06C70B1B0F5803F10D0012514E04F
:1015E000D4F88420DAF8001021F440111143CAF82D
:1015F0000010EBE7386840F40030386004E0022166
:10160000201D00F0F5FF0546CDB12E462068800074
:1016100005D50098022101F07BF800B10126206871
:1016200080031BD5E06FB8B1B0F5807F10D0B0F566
:10163000007F11D0B0F5407F0ED001250DE0294884
:10164000E26C0838016821F4803111430160DDE764
:10165000386840F400303860F5B32E462068C00288
:1016600007D5226FD8F8001021F000411143C8F8C7
:1016700000102068C00008D5D4F8B420DBF80010B2
:1016800021F480411143CBF800102068800207D577
:10169000A26ED8F8001021F080711143C8F8001034
:1016A000206840000CD5DBF8001021F40041CBF895
:1016B0000010DBF80010D4F8B8201143CBF800106C
:1016C0002068002807DA0748226D0838016821F0F1
:1016D00040511143016000E008E086B10120BDE8FF
:1016E000FC9F000054440258CFFFFF00E26FDAF87D
:1016F000001021F440711143CAF80010AEE7002039
:10170000EDE700002DE9F05F04000F467ED0DFF822
:101710003882D8F8000000F00F00B8420CD2D8F898
:10172000001021F00F013943C8F80010D8F800006C
:1017300000F00F00B84269D12078844D40070AD5E7
:101740002069296801F07001884204D9296821F0D4
:1017500070010143296020787C4E361D00070AD5B0
:101760006069316801F07001884204D9316821F064
:101770007001014331602078C0060AD5A069316844
:1017800001F4E061884204D9316821F4E061014349
:1017900031602078DFF8B4B180060BF1080B0CD56E
:1017A000E1695846DBF8002002F07002914204D94A
:1017B000026822F070020A430260207880070AD58E
:1017C000E068296801F00F01884204D9296821F0F6
:1017D0000F01014329602078C0073ED05B49A26811
:1017E0002868183920F47060104328606068022867
:1017F00018D0032819D00968012819D049070029F1
:101800004ADADFF848A1AAF1080A00E044E0DAF871
:10181000002022F007020243CAF80020FEF7B4FFBE
:10182000814612E009688903E9E709688901E6E76A
:10183000C905E4E7FEF7A8FFA0EB090141F28830F3
:10184000814202D90320BDE8F09F6168DAF8000008
:1018500000F03800B0EBC10FECD1207880070AD53A
:10186000E068296801F00F01884204D2296821F05C
:101870000F0101432960D8F80010404601F00F0124
:10188000B9420BD9016821F00F01394301600068AA
:1018900000F00F00B84201D00120D4E720784007C3
:1018A0000AD52069296801F07001884204D22968AC
:1018B00021F0700101432960207800070AD5606992
:1018C000316801F07001884204D2316821F0700162
:1018D000014331602078C0060AD5A069316801F45F
:1018E000E061884204D2316821F4E0610143316053
:1018F000207880060CD5E1695846DBF8002002F01C
:101900007002914204D2026822F070020A4302601F
:1019100000F026F80E492A682B68C2F3032203F070
:101920000F038A5CC95C02F01F0201F01F01D04066
:10193000084A20FA01F11160074908600748006869
:10194000BDE8F05FFEF75CBF00200052184402586B
:10195000482E000818000020140000200C00002071
:10196000454970B545480968434B103B11F03802B2
:1019700008D00111082A03D0102A0BD0182A0BD046
:10198000084670BD19688906FBD51968C1F3C10105
:10199000C84070BD3A4870BD3749374D18310C1DED
:1019A00024350A68096826682D6802F0030406F0E9
:1019B0000102C1F30511C5F3CC0515FB02F200EEDF
:1019C000102AB8EE400AE9B32F4ADFED2E0AB7EE2F
:1019D000001A6CB1DFED2D1A012C01D0022C43D07E
:1019E00002EE101A1068F8EE422A81EEA22A1EE0DA
:1019F0001C68A40611D51B6801EE901A1168C3F388
:101A0000C103F8EE612AD84001EE900AC1F3080044
:101A1000F8EE611A81EEA22A0BE001EE901ADFEDDA
:101A20001C2A00BFF8EE611A106882EEA12AC0F3EA
:101A3000080001EE900AF8EE611A40EE201A31EE2D
:101A4000810A00E015E022EE000A1068C0F346208B
:101A5000401C00EE900AF8EE600A80EE201ABCEE00
:101A6000C10A10EE100A70BD01EE901ADFED092ACE
:101A7000D8E7002070BD0000104402580090D00349
:101A800040787D0100000039304402580024744A37
:101A90000024744C20BCBE4B2DE9F05F04007CD0C8
:101AA000FF4F2078FE4D1837DFF8F493103DC00744
:101AB00048D0D9F80000396800F03800102815D057
:101AC000182803D101F0030002280FD06068B0F598
:101AD000803F12D010B1B0F5A02F18D0286820F4A4
:101AE00080302860286820F4802009E0286880037E
:101AF00028D560680028D2D024E0286840F48030DF
:101B00002860606888B1FEF73FFE064609E0286855
:101B100040F480202860F0E7FEF736FE801B642842
:101B20007ED828688003F7D50CE0FEF72DFE064628
:101B300005E000BFFEF728FE801B6428F0D8286867
:101B40008003F7D4207841F20308D54E0C3E80077D
:101B500053D5D9F80000396810F038000ED0182895
:101B600001D188070AD0E068A8B3296821F01901DB
:101B700001432960FEF708FE82461BE02868400703
:101B800002D5E06800288AD0FEF7F8FD40451BD852
:101B90002069402812D0316800E0CCE021F47C318B
:101BA00041EA0030306028E0FEF7EEFDA0EB0A00CD
:101BB0000228B5D828684007F6D5E5E7306820F454
:101BC0007C3040F40030EDE7207C316821F0FE41AC
:101BD00041EA0060E6E7FFE7286820F0010028609E
:101BE000FEF7D2FD824605E0FEF7CEFDA0EB0A002F
:101BF000022895D828684007F6D42078C0065FD51B
:101C0000D9F80000DFF898B2396800F03800ABF17D
:101C1000040B082812D0182805D101F0030000E0B9
:101C2000EAE001280AD0E0690028286838D040F0AE
:101C300080002860FEF7A8FD824623E02868C005E2
:101C400023D5E069802876D11FE0206A202821D0A2
:101C5000316821F0F84141EA8060306030E000BF37
:101C600094F82010DBF8002022F07C5242EA016157
:101C7000CBF8001024E000BFFEF786FDA0EB0A00C1
:101C8000022896D82868C005F6D5FEF777FD4045AE
:101C9000E6D8DAE7306820F0F84040F08040DCE732
:101CA00020F080002860FEF76FFD064605E000BFCB
:101CB000FEF76AFD801B02289BD82868C005F7D470
:101CC0002078000729D5764861696430002980466C
:101CD000016811D041F001010160FEF755FD064693
:101CE00005E000BFFEF750FD801B0228C9D8D8F8D8
:101CF00000008007F6D510E021F001010160FEF739
:101D000043FD064605E000BFFEF73EFD801B0228AE
:101D100072D8D8F800008007F6D42078800623D542
:101D2000A0690028286810D040F480502860FEF791
:101D30002BFD064605E02CE1FEF726FD801B022860
:101D40005AD828688004F7D50EE020F48050286027
:101D5000FEF71AFD064604E0FEF716FD801B02287A
:101D60004AD828688004F7D4207840074FD5DFF898
:101D70003481D8F8001041F48071C8F80010FEF7E3
:101D800003FD064605E000BFFEF7FEFC801B64284D
:101D900032D8D8F80000C005F6D5414EA0686036AC
:101DA00001280AD008B1052813D0306820F00100BE
:101DB0003060306820F0040002E0306840F001003C
:101DC0003060A06841F2883A90B1FEF7DDFC8046B1
:101DD0000AE0306840F004003060EEE7FEF7D4FC23
:101DE000A0EB0801514507D830688007F6D50EE012
:101DF000FEF7CAFC804607E084E000BFFEF7C4FCA3
:101E0000A0EB080151457DD830688007F6D4606AA0
:101E1000F0B3DFF88C80D9F8001008F12008C1F386
:101E2000C20103296FD00228286820F08070286042
:101E300003D0FEF7A9FC044680E0FEF7A5FC0646A9
:101E400005E000BFFEF7A0FC801B022873D82868BD
:101E50008001F7D4E26A40F2F331386854F8283F41
:101E6000884340EA021018433860217B4FF4FE0C8F
:101E700022894FF0FE47208A4902267D521E401ECD
:101E8000A1F5007189B20CEA0040C2F3080200E03B
:101E900081E01143761E0143014807EA066203E030
:101EA00010440258004802581C3011433B4AC8F8FD
:101EB0000010016821F00101016011684FF6F87609
:101EC000236AB14341EAC30111600168A26921F0AC
:101ED0000C01114301600168E26921F00201114324
:101EE0000160016841F480310160016841F4003112
:101EF0000160016841F480210160016841F0010145
:101F0000016001E017E01DE0286840F08070286063
:101F1000FEF73AFC044604E0FEF736FC001B0228FC
:101F200009D828688001F7D535E000BFFEF72CFC02
:101F3000001B022802D90320BDE8F09F2868800119
:101F4000F4D428E039680128D8F8000021D0A26A2A
:101F500001F0030393421CD1E26AC1F305118A42E6
:101F600017D1216BC0F30802491E8A4211D1616B5F
:101F7000C0F34622491E91420BD1A16BC0F3064229
:101F8000491E914205D1E16BC0F30660491E8142B2
:101F900001D00120D0E70020CEE7000034440258F1
:101FA00070B504004FF0010041D094F8210028B929
:101FB000002084F82000204600F03CF8022184F83C
:101FC0002110CA20226853215062206841622046B5
:101FD00000F02EFC18BB2068154A81681140816012
:101FE000D4E90013A569226988682A43184310437D
:101FF000886022682189E06840EA0140106120463B
:1020000000F038FC58B92168CA6C22F00302CA6497
:1020100022686369E169D56C19432943D164226858
:10202000FF215162002802D1012184F8211070BDE6
:10203000BFFF8FFF00680449884204D1034801684C
:1020400041F400410160704700400058704402585C
:1020500070B504460068C16821F0A001C160FEF7B8
:1020600093FB4FF47A76054607E000BFFEF78CFB42
:10207000401BB04201D9032070BD2068C0688006B3
:10208000F4D5002070BD401EB0F1807F10B501D3A3
:10209000012010BD4FF0E02460610F21601700F0B7
:1020A000D5FC0020A0610721216110BDFEE70000E2
:1020B00030B587B014216846FEF711F9264801684B
:1020C00041F010010160016801F010010591016803
:1020D00041F004010160016801F00401059101680B
:1020E00041F080010160016801F080010591016803
:1020F00041F002010160016801F0020105910168EF
:1021000041F008010160016801F0080105910168D2
:1021100041F00101016000680022104D082100F02B
:10212000010005902846FEF723FB0024082001212A
:102130008DE81300694628460394FEF7F5F902215D
:102140004FF4005000900648CDE901416946FEF782
:10215000EBF907B030BD0000E0440258001002580F
:10216000000802582DE9F0410D48002101270B4AD3
:1021700002232024C0E906711025016216264FF4BF
:10218000E06C80E87C10FEF779FC002803D0BDE805
:10219000F041FEF7FEB8BDE8F081000000500052AB
:1021A0001C0000200C4800210A4A7F2310B5FF24A0
:1021B00004C080E81A00C160416181610161001FB3
:1021C000FFF7EEFE002803D0BDE81040FEF7E1B8AF
:1021D00010BD00000040005868000020FEE7704776
:1021E00070470000194B002230B597B01B78052BC3
:1021F0000ED000BF4FF440730E934FF005030B92C7
:10220000CDE908320F92109205D14FF0807304E0AF
:102210004FF48073F0E74FF0407311934FF00103D8
:102220000D9213924FF480054FF010041492CDE9F3
:102230000223159207950494CDE9053202AA0B46B4
:1022400008A9FEF76FFB17B030BD000000000020AA
:102250002DE9F0434B6A4FF040652BB1AA4203D001
:1022600004688B6A5B1E23618B69002B68D00C6A43
:10227000B4B303688C68DC61CC69FCB1D1E90B387C
:10228000D1F824C04E6B8F8A43EA080346EA0C0655
:1022900033430E6A43EA8743D1E9037C43EA0C03E4
:1022A00033438E693B430F682343046833433B4306
:1022B00065E0006849688161BDE8F083D1E90B36CB
:1022C0004F6A4C6B8D8A33433C430E6923430C6A3F
:1022D00043EA85438D693343096823432B4362E016
:1022E000FFE7CC69B4F1000918D0D1E90B484F6A77
:1022F0004E6BB1F814C044EA08043E430F683443FF
:10230000CE6844EA8C44344344EA09041C4303681D
:102310003C431443AA425C61CBD1CDE7D1E90B46E3
:102320004F6A4D6BB1F814C034433D4300682C43F1
:10233000096844EA8C441C430C4314434461BBE7E2
:102340000B6AABB303688C68DC61CC69E4B1D1E99A
:102350000B38D1F824C04E6B8F8A43EA080346EA53
:102360000C0633430E6A43EA8743D1E9037C43EA10
:102370000C0333438E693B432343046833431343C5
:10238000AA42636195D197E7D1E90B364F6A4C6B4E
:102390008D8A33433C430E6923430C6A43EA8543E9
:1023A00089693343234300680B431343436183E745
:1023B000FFE7CC6984B1D1E90B384F6A4E6BB1F8B5
:1023C00014C043EA08033E433343CE6843EA8C43D8
:1023D000334323430468D2E74C6A002C9DD0D1E9F3
:1023E0000B368F8A4D6B0168334325432B4343EAF9
:1023F0008740104348615FE71E4AF0B5137891B0FB
:10240000042B1BD04FF480720692EF2700224FF46A
:102410004064CDE901274FF40055CDE90352260170
:1024200007AD4FF0407C06294FF0040185E85010BD
:1024300007D0EB240094042B09D009E04FF440723C
:10244000E2E7ED2300930591DC070B9402E00621FF
:102450000B9205914FF080510F920E92CDE90C2115
:102460000EAA6946FEF760FB002800D0012011B0DB
:10247000F0BD000000000020F0B58FB0064600213E
:1024800041F288344FF48070224666250095CDE9EC
:10249000060108913046099105910B910C910D911F
:1024A0006946FEF795FAC8B999272246694630462B
:1024B0000097FEF78DFA88B94FF4407022466946BE
:1024C000009506903046FEF783FA38B922466946F1
:1024D00030460097FEF77CFA002800D001200FB0AC
:1024E000F0BDF0B58FB014AC94E8E05000248DE856
:1024F0001600CDE90334CDF824C041F28832CDE98D
:102500000774CDE90AE40C9469460D94CDE90556AB
:10251000FEF75EFA002800D001200FB0F0BD2DE9D3
:10252000F041984616460F460446069D08E0681C92
:1025300006D0FEF729F9A0EB0800A8420AD84DB151
:1025400020688068384000D00120B042EFD10020E0
:10255000BDE8F081042084F84100606C40F0010087
:1025600060640120F4E70000F0B5204D074695B007
:102570002878042815D04FF480700690002441F28A
:1025800088360620079408943246059469460994D3
:102590000B940C940D9400903846FEF719FAF0B99C
:1025A00002E04FF44070E8E702204FF0050C1022E3
:1025B000CDF800C0430513930E900121CDE90F0221
:1025C000CDE91114287804280CD0080633460EAA49
:1025D000694609903846FEF7A5F9002800D0012089
:1025E00015B0F0BD4FF04070F0E700000000002093
:1025F0002DE9F047454D044689464FF0000A28680A
:10260000C04380070AD0414E283E306820F08060E9
:102610003060FEF7B9F80746B04608E00120BDE893
:10262000F08700BFFEF7B0F8C01B022867D8D8F8C3
:1026300000000001F6D4206829684FF4FE0721F459
:102640007C313E0241EA00302860207AA389B4F848
:1026500004C040022D4D2D495B1E227CACF1010CC3
:102660001035091DA0F5007080B2521ECCF3080C85
:1026700007EA034340EA0C00184306EA02621043EB
:1026800028600868626920F0C000104308600A688A
:10269000A06922F0200202430A60281D0A6822F085
:1026A00010020A6002684FF6F873E4699A4342EA3E
:1026B000C40202600868B9F1000F40F010020A601D
:1026C00011D00868B9F1010F11D040F40010086072
:1026D000D8F80000444640F08060C8F80000FEF7DB
:1026E00053F805460DE0086840F40020EFE740F499
:1026F0008010ECE7FEF748F8401B022801D90320C0
:102700008DE720680001F5D5504688E72844025837
:102710002DE9F047454D044689464FF0000A2868E8
:10272000C04380070AD0414E283E306820F08050D8
:102730003060FEF729F80746B04608E00120BDE802
:10274000F08700BFFEF720F8C01B022867D8D8F832
:1027500000008000F6D4208829684FF4FE0721F09D
:102760007C713E0241EA00502860207AA389B4F8C7
:1027700004C040022D4D2D495B1E227CACF1010CA2
:102780001835091DA0F5007080B2521ECCF3080C5C
:1027900007EA034340EA0C00184306EA02621043CA
:1027A00028600868626920F44060104308600A6885
:1027B000A06922F4007202430A60281D0A6822F40C
:1027C00080720A6002684FF6F873E4699A4342EA3D
:1027D000C40202600868B9F1000F40F480720A6018
:1027E00011D00868B9F1010F11D040F08070086075
:1027F000D8F80000444640F08050C8F80000FDF7CB
:10280000C3FF05460DE0086840F48000EFE740F4A0
:102810000000ECE7FDF7B8FF401B022801D90320B8
:102820008DE720688000F5D5504688E72844025897
:102830002DE9F041044600680025C168490615D419
:10284000691EC160FDF7A0FF032706464FF47A78A2
:1028500008E000BFFDF798FF801B404502D9032523
:1028600084F821702068C0684006F3D52846BDE88A
:10287000F08100002DE9F041124C032706460025A7
:10288000E06820F04000E060A068800607D4304691
:10289000FFF7DEFB90B1032586F821700EE0A068FB
:1028A00020F02000A0603046FFF7D2FB10B10325D6
:1028B00086F82170A06840F02000A0602846BDE89E
:1028C000F0810000004000587047FDF763BF000032
:1028D000F0B5CBB04C212FA8FDF701FD202142A877
:1028E000FDF7FDFCBC216846FDF7F9FC0220FDF771
:1028F000E7FF274800242749026842F4404202606B
:1029000002680A6842F001020A60096801F00101E8
:102910004A9101688904FCD5FDF7FCFFFDF72EFF05
:102920001D4B052102201A680825C60322F018074E
:102930001F600122CDE92F1639AF3192C0233890A4
:10294000042687E80B003C90CDE93F544194CDE943
:102950003D062FA8FFF7A0F840203F210301CDE955
:1029600045500322CDE9470342AB499042A883E892
:1029700016000421FEF7C6FE4FF010701294690194
:102980002C9100906846FEF75FFA4BB0F0BD000056
:10299000184802582C04005870440258214A30B597
:1029A000214914680020204B44F470041460103353
:1029B0000A681E4D42F001020A6018600A681A4B4C
:1029C0002A400A6018331C1D251D174A186028323A
:1029D0002060131D28601C1D251D10602A1D186015
:1029E000131D20601C1D2860251D106018602060CC
:1029F00028600A680C4B0E4C22F4802260330A6077
:102A0000186020686FF30F00B0F1005F03D209492E
:102A10000120C1F808014FF00060024980390860C8
:102A200030BD000088ED00E0004402587FEDF6EA7A
:102A30000010005C00800051FEE70000024810B565
:102A4000FFF792FDC0B210BD1C000020090700284E
:102A50004FEA116104DB00F1E02080F800147047B8
:102A600000F00F0000F1E02080F8141D704702E034
:102A700008C8121F08C1002AFAD170477047002009
:102A800001E001C1121F002AFBD17047026807490B
:102A90000A40B2F1105F06D000680840B0F1005F54
:102AA00001D0012070470020704700000000F82F7F
:102AB000BFF34F8FBFF36F8F4C4800240460BFF308
:102AC0004F8FBFF36F8F4A49086840F400300860A9
:102AD000BFF34F8FBFF36F8F454870300460BFF373
:102AE0004F8F001F43F6FF760068404D1035C0F34E
:102AF0004E32C0F3C90306EA4217184647EA807C03
:102B0000C5F800C0401EF9D2521EF4D2BFF34F8F59
:102B1000086840F480300860BFF34F8FBFF36F8FB9
:102B2000FDF740FEFFF7D4FEFFF7C2FAFFF73AFBCE
:102B300000F0DAF800F06CF8062000F053F9DFF846
:102B4000B4804FF4005739464046FDF705FE2A4D44
:102B500001284FF0E02630D1322004E00821284639
:102B6000FDF7FFFD5020FDF715FC39464046FDF707
:102B7000F3FD0128F2D02148FDF76DFF4FF6FF77F6
:102B80001F483946FDF718FC1E483946FDF714FC6E
:102B900039464046FDF710FC1B483946FDF70CFC52
:102BA00039462846FDF708FCFDF7B8FB34611749A4
:102BB0004868096881F3088880474FF01047384615
:102BC000FFF764FF38B9FDF7A9FB3461786839680D
:102BD00081F3088880474FF47A7428460821FDF76E
:102BE000C0FD2046FDF7D6FBF7E7000050EF00E000
:102BF00014ED00E000080258001002581C000020EC
:102C00000000025800040258000C02580098F01FFF
:102C100030B5184D352085B000F090F80446800797
:102C200006D4FFF70BFF312044F0020100F0E6F874
:102C300000204FF4807103460246CDE9011038218F
:102C40000390049000902846FFF74BFC41F2883136
:102C50002846FFF7C7FA10B105B0012030BD06497C
:102C60000420087005B008210846BDE8304000F097
:102C70008FB800001C00002000000020184A062029
:102C800030B5C1051478420287B0052C4FF40053CB
:102C900016D0C501049000241248CDE902219021EC
:102CA0002246CDE9004500BFFFF71BFC0D4805A9F2
:102CB00041F28832FEF70CF868B1012007B030BD50
:102CC000CDE903104FF480740090CDE90142002259
:102CD00004489421E8E7BDF8140040BAEEE700008C
:102CE000000000201C000020052010B5FDF752FB5D
:102CF000FFF738FA0648FFF7BFFB0020FDF74AFB55
:102D0000FFF7BCFF03494880BDE8104000F004B85D
:102D10001C00002000000020052010B500F00EF877
:102D2000054C2070352000F009F86070152000F087
:102D300005F8A070002010BD0400002010B5124B53
:102D400086B0002201218DF814201B78052B17D0A6
:102D50004FF040731C140491CDE902230023014677
:102D6000CDE9002409481A46FFF7BBFB074805A92F
:102D700041F28832FDF7ACFF9DF8140006B010BD9B
:102D80004FF080731C14E6E7000000201C000020B8
:102D900040084FF0FF3200B587B0000102EBD101CF
:102DA000103801F0030108438DF81400FFF746FEC8
:102DB0004FF040720020131401210491CDE902026A
:102DC000CDE90003C021034602460548FFF789FB11
:102DD000034805A941F28832FDF7DAFF07B000BDCC
:102DE0001C0000200146044810B5FFF705FB002831
:102DF00000D0012010BD00001C00002013B51049B8
:102E0000002286B00B780121052B15D04FF04073BE
:102E10001C140491CDE9022300230146CDE90024CE
:102E200008481A46FFF75DFB064807A941F28832B9
:102E3000FDF7AEFF08B010BD4FF080731C14E8E73B
:102E4000000000201C00002000000000010203041C
:102E50000102030406070809782E0008000000207C
:102E60001C0000006E2A0008942E00081C000020A0
:102E7000740400007E2A0008050000000000000025
:102E80000100000010000000000000000090D003CE
:042E90000090D003DB
:040000050800029954
:00000001FF
